:020000040000FA
:040000006AEF04F0AF
:10080000003F065B4F666D7D077F6F00050E066E2D
:10081000080E076E61EC04F0010E0624F66EF76A0E
:10082000080EF7220800F5503EEC04F08C80060E0E
:10083000056E130E046EAE0EE82EFED7042EFCD706
:10084000052EFAD78C90010E0724F66EF76A080E73
:10085000F7220800F5503EEC04F08C82060E056E7F
:10086000130E046EAE0EE82EFED7042EFCD7052E16
:10087000FAD78C920CEF04F000EF00F0026E000E3D
:10088000036E8B9002BE47EF04F04BEF04F0016A59
:10089000012A4CEF04F0016A01468B500118FD0B50
:1008A00001188B6E8B80D8900236032A070E0364E2
:1008B0005CEF04F05EEF04F041EF04F08B948B8466
:1008C0001200F80E946E000E8B6EFC0E956E000EEC
:1008D0008C6E1200000EF86E080EF76E000106EF27
:0208E00004F022
:020000040020DA
:08000000FFFFFFFFFFFFFFFF00
:020000040030CA
:0E00000000081F1EFF0381FF0FC00FE00F401E
:00000001FF
